{
  "_format": "hh-sol-artifact-1",
  "contractName": "phoneLink",
  "sourceName": "contracts/phoneLink.sol",
  "abi": [
    {
      "anonymous": false,
      "inputs": [
        {
          "indexed": true,
          "internalType": "address",
          "name": "owner",
          "type": "address"
        },
        {
          "indexed": true,
          "internalType": "address",
          "name": "spender",
          "type": "address"
        },
        {
          "indexed": false,
          "internalType": "uint256",
          "name": "value",
          "type": "uint256"
        }
      ],
      "name": "Approval",
      "type": "event"
    },
    {
      "anonymous": false,
      "inputs": [
        {
          "indexed": true,
          "internalType": "string",
          "name": "name",
          "type": "string"
        },
        {
          "indexed": true,
          "internalType": "string",
          "name": "identifier",
          "type": "string"
        },
        {
          "indexed": true,
          "internalType": "string",
          "name": "typeOfIdentifier",
          "type": "string"
        },
        {
          "indexed": false,
          "internalType": "address",
          "name": "connectedWalletAddress",
          "type": "address"
        },
        {
          "indexed": false,
          "internalType": "bool",
          "name": "isPrimaryWallet",
          "type": "bool"
        }
      ],
      "name": "DetailsCreated",
      "type": "event"
    },
    {
      "anonymous": false,
      "inputs": [
        {
          "indexed": false,
          "internalType": "uint8",
          "name": "version",
          "type": "uint8"
        }
      ],
      "name": "Initialized",
      "type": "event"
    },
    {
      "anonymous": false,
      "inputs": [
        {
          "indexed": true,
          "internalType": "address",
          "name": "previousOwner",
          "type": "address"
        },
        {
          "indexed": true,
          "internalType": "address",
          "name": "newOwner",
          "type": "address"
        }
      ],
      "name": "OwnershipTransferred",
      "type": "event"
    },
    {
      "anonymous": false,
      "inputs": [
        {
          "indexed": true,
          "internalType": "address",
          "name": "from",
          "type": "address"
        },
        {
          "indexed": true,
          "internalType": "address",
          "name": "to",
          "type": "address"
        },
        {
          "indexed": false,
          "internalType": "uint256",
          "name": "value",
          "type": "uint256"
        }
      ],
      "name": "Transfer",
      "type": "event"
    },
    {
      "inputs": [],
      "name": "_escrowIds",
      "outputs": [
        {
          "internalType": "uint256",
          "name": "_value",
          "type": "uint256"
        }
      ],
      "stateMutability": "view",
      "type": "function"
    },
    {
      "inputs": [],
      "name": "_itemIds",
      "outputs": [
        {
          "internalType": "uint256",
          "name": "_value",
          "type": "uint256"
        }
      ],
      "stateMutability": "view",
      "type": "function"
    },
    {
      "inputs": [
        {
          "internalType": "address",
          "name": "owner",
          "type": "address"
        },
        {
          "internalType": "address",
          "name": "spender",
          "type": "address"
        }
      ],
      "name": "allowance",
      "outputs": [
        {
          "internalType": "uint256",
          "name": "",
          "type": "uint256"
        }
      ],
      "stateMutability": "view",
      "type": "function"
    },
    {
      "inputs": [
        {
          "internalType": "address",
          "name": "spender",
          "type": "address"
        },
        {
          "internalType": "uint256",
          "name": "amount",
          "type": "uint256"
        }
      ],
      "name": "approve",
      "outputs": [
        {
          "internalType": "bool",
          "name": "",
          "type": "bool"
        }
      ],
      "stateMutability": "nonpayable",
      "type": "function"
    },
    {
      "inputs": [
        {
          "internalType": "address",
          "name": "account",
          "type": "address"
        }
      ],
      "name": "balanceOf",
      "outputs": [
        {
          "internalType": "uint256",
          "name": "",
          "type": "uint256"
        }
      ],
      "stateMutability": "view",
      "type": "function"
    },
    {
      "inputs": [
        {
          "internalType": "address",
          "name": "_token",
          "type": "address"
        },
        {
          "internalType": "address",
          "name": "_to",
          "type": "address"
        },
        {
          "internalType": "uint256",
          "name": "_amount",
          "type": "uint256"
        }
      ],
      "name": "createEscrow",
      "outputs": [],
      "stateMutability": "nonpayable",
      "type": "function"
    },
    {
      "inputs": [],
      "name": "decimals",
      "outputs": [
        {
          "internalType": "uint8",
          "name": "",
          "type": "uint8"
        }
      ],
      "stateMutability": "view",
      "type": "function"
    },
    {
      "inputs": [
        {
          "internalType": "address",
          "name": "spender",
          "type": "address"
        },
        {
          "internalType": "uint256",
          "name": "subtractedValue",
          "type": "uint256"
        }
      ],
      "name": "decreaseAllowance",
      "outputs": [
        {
          "internalType": "bool",
          "name": "",
          "type": "bool"
        }
      ],
      "stateMutability": "nonpayable",
      "type": "function"
    },
    {
      "inputs": [
        {
          "internalType": "string",
          "name": "name",
          "type": "string"
        },
        {
          "internalType": "string",
          "name": "identifier",
          "type": "string"
        },
        {
          "internalType": "string",
          "name": "typeOfIdentifier",
          "type": "string"
        },
        {
          "internalType": "string",
          "name": "oldIdentifier",
          "type": "string"
        }
      ],
      "name": "editProfile",
      "outputs": [],
      "stateMutability": "nonpayable",
      "type": "function"
    },
    {
      "inputs": [
        {
          "internalType": "string",
          "name": "name",
          "type": "string"
        },
        {
          "internalType": "string",
          "name": "identifier",
          "type": "string"
        },
        {
          "internalType": "string",
          "name": "typeOfIdentifier",
          "type": "string"
        }
      ],
      "name": "enterDetails",
      "outputs": [],
      "stateMutability": "nonpayable",
      "type": "function"
    },
    {
      "inputs": [
        {
          "internalType": "uint256",
          "name": "",
          "type": "uint256"
        }
      ],
      "name": "escrowToDetails",
      "outputs": [
        {
          "internalType": "uint256",
          "name": "escrowNumber",
          "type": "uint256"
        },
        {
          "internalType": "address",
          "name": "tokenAddress",
          "type": "address"
        },
        {
          "internalType": "address",
          "name": "escrowPayer",
          "type": "address"
        },
        {
          "internalType": "address",
          "name": "escrowReceiver",
          "type": "address"
        },
        {
          "internalType": "uint256",
          "name": "escrowAmount",
          "type": "uint256"
        },
        {
          "internalType": "bool",
          "name": "release",
          "type": "bool"
        },
        {
          "internalType": "bool",
          "name": "withdrawalDone",
          "type": "bool"
        }
      ],
      "stateMutability": "view",
      "type": "function"
    },
    {
      "inputs": [
        {
          "internalType": "string",
          "name": "userIdentifier",
          "type": "string"
        }
      ],
      "name": "fetchAllWalletAddress",
      "outputs": [
        {
          "components": [
            {
              "internalType": "string",
              "name": "name",
              "type": "string"
            },
            {
              "internalType": "string",
              "name": "identifier",
              "type": "string"
            },
            {
              "internalType": "string",
              "name": "typeOfIdentifier",
              "type": "string"
            },
            {
              "internalType": "address",
              "name": "connectedWalletAddress",
              "type": "address"
            },
            {
              "internalType": "bool",
              "name": "isPrimaryWallet",
              "type": "bool"
            }
          ],
          "internalType": "struct phoneLink.Details[]",
          "name": "",
          "type": "tuple[]"
        }
      ],
      "stateMutability": "view",
      "type": "function"
    },
    {
      "inputs": [
        {
          "internalType": "string",
          "name": "userIdentifier",
          "type": "string"
        }
      ],
      "name": "fetchPrimaryWalletAddress",
      "outputs": [
        {
          "internalType": "address",
          "name": "",
          "type": "address"
        }
      ],
      "stateMutability": "view",
      "type": "function"
    },
    {
      "inputs": [],
      "name": "getMarketOwner",
      "outputs": [
        {
          "internalType": "address payable",
          "name": "",
          "type": "address"
        }
      ],
      "stateMutability": "view",
      "type": "function"
    },
    {
      "inputs": [],
      "name": "getMyEscrow_Payee",
      "outputs": [
        {
          "components": [
            {
              "internalType": "uint256",
              "name": "escrowNumber",
              "type": "uint256"
            },
            {
              "internalType": "address",
              "name": "tokenAddress",
              "type": "address"
            },
            {
              "internalType": "address",
              "name": "escrowPayer",
              "type": "address"
            },
            {
              "internalType": "address",
              "name": "escrowReceiver",
              "type": "address"
            },
            {
              "internalType": "uint256",
              "name": "escrowAmount",
              "type": "uint256"
            },
            {
              "internalType": "bool",
              "name": "release",
              "type": "bool"
            },
            {
              "internalType": "bool",
              "name": "withdrawalDone",
              "type": "bool"
            }
          ],
          "internalType": "struct phoneLink.EscrowDetails[]",
          "name": "",
          "type": "tuple[]"
        }
      ],
      "stateMutability": "view",
      "type": "function"
    },
    {
      "inputs": [],
      "name": "getMyEscrow_Payer",
      "outputs": [
        {
          "components": [
            {
              "internalType": "uint256",
              "name": "escrowNumber",
              "type": "uint256"
            },
            {
              "internalType": "address",
              "name": "tokenAddress",
              "type": "address"
            },
            {
              "internalType": "address",
              "name": "escrowPayer",
              "type": "address"
            },
            {
              "internalType": "address",
              "name": "escrowReceiver",
              "type": "address"
            },
            {
              "internalType": "uint256",
              "name": "escrowAmount",
              "type": "uint256"
            },
            {
              "internalType": "bool",
              "name": "release",
              "type": "bool"
            },
            {
              "internalType": "bool",
              "name": "withdrawalDone",
              "type": "bool"
            }
          ],
          "internalType": "struct phoneLink.EscrowDetails[]",
          "name": "",
          "type": "tuple[]"
        }
      ],
      "stateMutability": "view",
      "type": "function"
    },
    {
      "inputs": [],
      "name": "getPhoneToDetails",
      "outputs": [
        {
          "components": [
            {
              "internalType": "string",
              "name": "name",
              "type": "string"
            },
            {
              "internalType": "string",
              "name": "identifier",
              "type": "string"
            },
            {
              "internalType": "string",
              "name": "typeOfIdentifier",
              "type": "string"
            },
            {
              "internalType": "address",
              "name": "connectedWalletAddress",
              "type": "address"
            },
            {
              "internalType": "bool",
              "name": "isPrimaryWallet",
              "type": "bool"
            }
          ],
          "internalType": "struct phoneLink.Details[]",
          "name": "",
          "type": "tuple[]"
        }
      ],
      "stateMutability": "view",
      "type": "function"
    },
    {
      "inputs": [
        {
          "internalType": "address",
          "name": "walletAddress",
          "type": "address"
        }
      ],
      "name": "getWalletDetails",
      "outputs": [
        {
          "components": [
            {
              "internalType": "string",
              "name": "name",
              "type": "string"
            },
            {
              "internalType": "string",
              "name": "identifier",
              "type": "string"
            },
            {
              "internalType": "string",
              "name": "typeOfIdentifier",
              "type": "string"
            },
            {
              "internalType": "address",
              "name": "connectedWalletAddress",
              "type": "address"
            },
            {
              "internalType": "bool",
              "name": "isPrimaryWallet",
              "type": "bool"
            }
          ],
          "internalType": "struct phoneLink.Details[]",
          "name": "",
          "type": "tuple[]"
        }
      ],
      "stateMutability": "view",
      "type": "function"
    },
    {
      "inputs": [
        {
          "internalType": "address",
          "name": "spender",
          "type": "address"
        },
        {
          "internalType": "uint256",
          "name": "addedValue",
          "type": "uint256"
        }
      ],
      "name": "increaseAllowance",
      "outputs": [
        {
          "internalType": "bool",
          "name": "",
          "type": "bool"
        }
      ],
      "stateMutability": "nonpayable",
      "type": "function"
    },
    {
      "inputs": [],
      "name": "initialize",
      "outputs": [],
      "stateMutability": "nonpayable",
      "type": "function"
    },
    {
      "inputs": [
        {
          "internalType": "address",
          "name": "wallet",
          "type": "address"
        },
        {
          "internalType": "string",
          "name": "identifier",
          "type": "string"
        }
      ],
      "name": "makePrimary",
      "outputs": [],
      "stateMutability": "nonpayable",
      "type": "function"
    },
    {
      "inputs": [],
      "name": "marketowner",
      "outputs": [
        {
          "internalType": "address payable",
          "name": "",
          "type": "address"
        }
      ],
      "stateMutability": "view",
      "type": "function"
    },
    {
      "inputs": [],
      "name": "myWallets",
      "outputs": [
        {
          "components": [
            {
              "internalType": "string",
              "name": "name",
              "type": "string"
            },
            {
              "internalType": "string",
              "name": "identifier",
              "type": "string"
            },
            {
              "internalType": "string",
              "name": "typeOfIdentifier",
              "type": "string"
            },
            {
              "internalType": "address",
              "name": "connectedWalletAddress",
              "type": "address"
            },
            {
              "internalType": "bool",
              "name": "isPrimaryWallet",
              "type": "bool"
            }
          ],
          "internalType": "struct phoneLink.Details[]",
          "name": "",
          "type": "tuple[]"
        }
      ],
      "stateMutability": "view",
      "type": "function"
    },
    {
      "inputs": [],
      "name": "name",
      "outputs": [
        {
          "internalType": "string",
          "name": "",
          "type": "string"
        }
      ],
      "stateMutability": "view",
      "type": "function"
    },
    {
      "inputs": [],
      "name": "owner",
      "outputs": [
        {
          "internalType": "address",
          "name": "",
          "type": "address"
        }
      ],
      "stateMutability": "view",
      "type": "function"
    },
    {
      "inputs": [
        {
          "internalType": "uint256",
          "name": "",
          "type": "uint256"
        }
      ],
      "name": "phoneToDetails",
      "outputs": [
        {
          "internalType": "string",
          "name": "name",
          "type": "string"
        },
        {
          "internalType": "string",
          "name": "identifier",
          "type": "string"
        },
        {
          "internalType": "string",
          "name": "typeOfIdentifier",
          "type": "string"
        },
        {
          "internalType": "address",
          "name": "connectedWalletAddress",
          "type": "address"
        },
        {
          "internalType": "bool",
          "name": "isPrimaryWallet",
          "type": "bool"
        }
      ],
      "stateMutability": "view",
      "type": "function"
    },
    {
      "inputs": [
        {
          "internalType": "uint256",
          "name": "escrowNo",
          "type": "uint256"
        }
      ],
      "name": "releaseEscrow",
      "outputs": [],
      "stateMutability": "nonpayable",
      "type": "function"
    },
    {
      "inputs": [],
      "name": "renounceOwnership",
      "outputs": [],
      "stateMutability": "nonpayable",
      "type": "function"
    },
    {
      "inputs": [
        {
          "internalType": "address",
          "name": "destination",
          "type": "address"
        },
        {
          "internalType": "uint256",
          "name": "amount",
          "type": "uint256"
        }
      ],
      "name": "sendToken",
      "outputs": [],
      "stateMutability": "payable",
      "type": "function"
    },
    {
      "inputs": [],
      "name": "symbol",
      "outputs": [
        {
          "internalType": "string",
          "name": "",
          "type": "string"
        }
      ],
      "stateMutability": "view",
      "type": "function"
    },
    {
      "inputs": [],
      "name": "totalSupply",
      "outputs": [
        {
          "internalType": "uint256",
          "name": "",
          "type": "uint256"
        }
      ],
      "stateMutability": "view",
      "type": "function"
    },
    {
      "inputs": [
        {
          "internalType": "address",
          "name": "to",
          "type": "address"
        },
        {
          "internalType": "uint256",
          "name": "amount",
          "type": "uint256"
        }
      ],
      "name": "transfer",
      "outputs": [
        {
          "internalType": "bool",
          "name": "",
          "type": "bool"
        }
      ],
      "stateMutability": "nonpayable",
      "type": "function"
    },
    {
      "inputs": [
        {
          "internalType": "address",
          "name": "from",
          "type": "address"
        },
        {
          "internalType": "address",
          "name": "to",
          "type": "address"
        },
        {
          "internalType": "uint256",
          "name": "amount",
          "type": "uint256"
        }
      ],
      "name": "transferFrom",
      "outputs": [
        {
          "internalType": "bool",
          "name": "",
          "type": "bool"
        }
      ],
      "stateMutability": "nonpayable",
      "type": "function"
    },
    {
      "inputs": [
        {
          "internalType": "address",
          "name": "newOwner",
          "type": "address"
        }
      ],
      "name": "transferOwnership",
      "outputs": [],
      "stateMutability": "nonpayable",
      "type": "function"
    },
    {
      "inputs": [
        {
          "internalType": "string",
          "name": "identifier",
          "type": "string"
        }
      ],
      "name": "uniqueEntry",
      "outputs": [
        {
          "internalType": "bool",
          "name": "",
          "type": "bool"
        }
      ],
      "stateMutability": "view",
      "type": "function"
    },
    {
      "inputs": [
        {
          "internalType": "uint256",
          "name": "escrowNo",
          "type": "uint256"
        }
      ],
      "name": "withDrawFund",
      "outputs": [],
      "stateMutability": "nonpayable",
      "type": "function"
    }
  ],
  "bytecode": "0x608060405234801561001057600080fd5b50615d5880620000216000396000f3fe60806040526004361061020f5760003560e01c8063715018a611610118578063b48f3f5a116100a0578063d263be481161006f578063d263be48146107d8578063db461e1a14610803578063dd62ed3e14610840578063ed6531641461087d578063f2fde38b146108a65761020f565b8063b48f3f5a14610732578063b5ad18b01461075d578063c361765014610786578063d137bc6c146107af5761020f565b80638da5cb5b116100e75780638da5cb5b1461063757806395d89b4114610662578063a457c2d71461068d578063a9059cbb146106ca578063a9308681146107075761020f565b8063715018a6146105895780637a93676b146105a05780638129fc1c146105e35780638cae45d2146105fa5761020f565b80633e3a648d1161019b5780635a12d0f81161016a5780635a12d0f81461048e5780635e385b92146104b957806360b09079146104e45780636e9976651461050f57806370a082311461054c5761020f565b80633e3a648d146103dd578063412664ae14610406578063451e9cf01461042257806352d954911461044d5761020f565b806318160ddd116101e257806318160ddd146102e257806323b872dd1461030d578063313ce5671461034a57806334a7f1931461037557806339509351146103a05761020f565b806306fdde0314610214578063095ea7b31461023f5780630c60b3721461027c57806315ccb680146102a5575b600080fd5b34801561022057600080fd5b506102296108cf565b6040516102369190615167565b60405180910390f35b34801561024b57600080fd5b50610266600480360381019061026191906147e4565b610961565b6040516102739190615131565b60405180910390f35b34801561028857600080fd5b506102a3600480360381019061029e9190614790565b610984565b005b3480156102b157600080fd5b506102cc60048036038101906102c79190614849565b610c06565b6040516102d99190615131565b60405180910390f35b3480156102ee57600080fd5b506102f7610d3b565b6040516103049190615411565b60405180910390f35b34801561031957600080fd5b50610334600480360381019061032f9190614741565b610d45565b6040516103419190615131565b60405180910390f35b34801561035657600080fd5b5061035f610d74565b60405161036c919061549b565b60405180910390f35b34801561038157600080fd5b5061038a610d7d565b6040516103979190615411565b60405180910390f35b3480156103ac57600080fd5b506103c760048036038101906103c291906147e4565b610d89565b6040516103d49190615131565b60405180910390f35b3480156103e957600080fd5b5061040460048036038101906103ff9190614921565b610dc0565b005b610420600480360381019061041b91906147e4565b611052565b005b34801561042e57600080fd5b506104376110f3565b6040516104449190615072565b60405180910390f35b34801561045957600080fd5b50610474600480360381019061046f91906149e4565b61111d565b604051610485959493929190615189565b60405180910390f35b34801561049a57600080fd5b506104a3611318565b6040516104b091906150ed565b60405180910390f35b3480156104c557600080fd5b506104ce6116fb565b6040516104db9190615072565b60405180910390f35b3480156104f057600080fd5b506104f9611721565b604051610506919061510f565b60405180910390f35b34801561051b57600080fd5b5061053660048036038101906105319190614849565b611a1e565b60405161054391906150ed565b60405180910390f35b34801561055857600080fd5b50610573600480360381019061056e91906146dc565b611ea4565b6040516105809190615411565b60405180910390f35b34801561059557600080fd5b5061059e611eed565b005b3480156105ac57600080fd5b506105c760048036038101906105c291906149e4565b611f75565b6040516105da979695949392919061542c565b60405180910390f35b3480156105ef57600080fd5b506105f8612031565b005b34801561060657600080fd5b50610621600480360381019061061c91906146dc565b612136565b60405161062e91906150ed565b60405180910390f35b34801561064357600080fd5b5061064c612510565b6040516106599190615057565b60405180910390f35b34801561066e57600080fd5b5061067761253a565b6040516106849190615167565b60405180910390f35b34801561069957600080fd5b506106b460048036038101906106af91906147e4565b6125cc565b6040516106c19190615131565b60405180910390f35b3480156106d657600080fd5b506106f160048036038101906106ec91906147e4565b612643565b6040516106fe9190615131565b60405180910390f35b34801561071357600080fd5b5061071c612666565b6040516107299190615411565b60405180910390f35b34801561073e57600080fd5b50610747612672565b604051610754919061510f565b60405180910390f35b34801561076957600080fd5b50610784600480360381019061077f91906149e4565b61296f565b005b34801561079257600080fd5b506107ad60048036038101906107a89190614741565b612db4565b005b3480156107bb57600080fd5b506107d660048036038101906107d1919061488a565b612fe2565b005b3480156107e457600080fd5b506107ed6132b6565b6040516107fa91906150ed565b60405180910390f35b34801561080f57600080fd5b5061082a60048036038101906108259190614849565b613744565b6040516108379190615057565b60405180910390f35b34801561084c57600080fd5b5061086760048036038101906108629190614705565b61387f565b6040516108749190615411565b60405180910390f35b34801561088957600080fd5b506108a4600480360381019061089f91906149e4565b613906565b005b3480156108b257600080fd5b506108cd60048036038101906108c891906146dc565b613a9c565b005b6060603680546108de90615712565b80601f016020809104026020016040519081016040528092919081815260200182805461090a90615712565b80156109575780601f1061092c57610100808354040283529160200191610957565b820191906000526020600020905b81548152906001019060200180831161093a57829003601f168201915b5050505050905090565b60008061096c613b94565b9050610979818585613b9c565b600191505092915050565b600260655414156109ca576040517f08c379a00000000000000000000000000000000000000000000000000000000081526004016109c1906153d1565b60405180910390fd5b600260658190555060006109de60ca613d67565b905060005b81811015610aaf57826040516020016109fc9190615029565b6040516020818303038152906040528051906020012060cc6000600184610a2391906155cb565b8152602001908152602001600020600101604051602001610a449190615040565b604051602081830303815290604052805190602001201415610a9c57600060cc6000600184610a7391906155cb565b815260200190815260200160002060030160146101000a81548160ff0219169083151502179055505b8080610aa790615775565b9150506109e3565b5060005b81811015610bf8578373ffffffffffffffffffffffffffffffffffffffff1660cc6000600184610ae391906155cb565b815260200190815260200160002060030160009054906101000a900473ffffffffffffffffffffffffffffffffffffffff1673ffffffffffffffffffffffffffffffffffffffff16148015610ba4575082604051602001610b449190615029565b6040516020818303038152906040528051906020012060cc6000600184610b6b91906155cb565b8152602001908152602001600020600101604051602001610b8c9190615040565b60405160208183030381529060405280519060200120145b15610be557600160cc6000600184610bbc91906155cb565b815260200190815260200160002060030160146101000a81548160ff0219169083151502179055505b8080610bf090615775565b915050610ab3565b505060016065819055505050565b600080600190506000610c1960ca613d67565b905060005b81811015610d30573373ffffffffffffffffffffffffffffffffffffffff1660cc6000600184610c4e91906155cb565b815260200190815260200160002060030160009054906101000a900473ffffffffffffffffffffffffffffffffffffffff1673ffffffffffffffffffffffffffffffffffffffff16148015610d0f575084604051602001610caf9190615029565b6040516020818303038152906040528051906020012060cc6000600184610cd691906155cb565b8152602001908152602001600020600101604051602001610cf79190615040565b60405160208183030381529060405280519060200120145b15610d1d5760009250610d30565b8080610d2890615775565b915050610c1e565b508192505050919050565b6000603554905090565b600080610d50613b94565b9050610d5d858285613d75565b610d68858585613e01565b60019150509392505050565b60006012905090565b60ca8060000154905081565b600080610d94613b94565b9050610db5818585610da6858961387f565b610db091906155cb565b613b9c565b600191505092915050565b60026065541415610e06576040517f08c379a0000000000000000000000000000000000000000000000000000000008152600401610dfd906153d1565b60405180910390fd5b60026065819055506000610e1a60ca613d67565b905060005b81811015611042573373ffffffffffffffffffffffffffffffffffffffff1660cc6000600184610e4f91906155cb565b815260200190815260200160002060030160009054906101000a900473ffffffffffffffffffffffffffffffffffffffff1673ffffffffffffffffffffffffffffffffffffffff16141561102f5783604051602001610eae9190615029565b6040516020818303038152906040528051906020012060cc6000600184610ed591906155cb565b8152602001908152602001600020600201604051602001610ef69190615040565b60405160208183030381529060405280519060200120141561102e5782604051602001610f239190615029565b6040516020818303038152906040528051906020012060cc6000600184610f4a91906155cb565b8152602001908152602001600020600101604051602001610f6b9190615040565b60405160208183030381529060405280519060200120141561102d578560cc6000600184610f9991906155cb565b81526020019081526020016000206000019080519060200190610fbd9291906144c8565b508460cc6000600184610fd091906155cb565b81526020019081526020016000206001019080519060200190610ff49291906144c8565b508360cc600060018461100791906155cb565b8152602001908152602001600020600201908051906020019061102b9291906144c8565b505b5b5b808061103a90615775565b915050610e1f565b5050600160658190555050505050565b60026065541415611098576040517f08c379a000000000000000000000000000000000000000000000000000000000815260040161108f906153d1565b60405180910390fd5b60026065819055508173ffffffffffffffffffffffffffffffffffffffff166108fc829081150290604051600060405180830381858888f193505050501580156110e6573d6000803e3d6000fd5b5060016065819055505050565b600060c960009054906101000a900473ffffffffffffffffffffffffffffffffffffffff16905090565b60cc60205280600052604060002060009150905080600001805461114090615712565b80601f016020809104026020016040519081016040528092919081815260200182805461116c90615712565b80156111b95780601f1061118e576101008083540402835291602001916111b9565b820191906000526020600020905b81548152906001019060200180831161119c57829003601f168201915b5050505050908060010180546111ce90615712565b80601f01602080910402602001604051908101604052809291908181526020018280546111fa90615712565b80156112475780601f1061121c57610100808354040283529160200191611247565b820191906000526020600020905b81548152906001019060200180831161122a57829003601f168201915b50505050509080600201805461125c90615712565b80601f016020809104026020016040519081016040528092919081815260200182805461128890615712565b80156112d55780601f106112aa576101008083540402835291602001916112d5565b820191906000526020600020905b8154815290600101906020018083116112b857829003601f168201915b5050505050908060030160009054906101000a900473ffffffffffffffffffffffffffffffffffffffff16908060030160149054906101000a900460ff16905085565b6060611322613b94565b73ffffffffffffffffffffffffffffffffffffffff16611340612510565b73ffffffffffffffffffffffffffffffffffffffff1614611396576040517f08c379a000000000000000000000000000000000000000000000000000000000815260040161138d906152d1565b60405180910390fd5b60006113a260ca613d67565b90506000808267ffffffffffffffff8111156113e7577f4e487b7100000000000000000000000000000000000000000000000000000000600052604160045260246000fd5b60405190808252806020026020018201604052801561142057816020015b61140d61454e565b8152602001906001900390816114055790505b50905060005b838110156116f157600060018261143d91906155cb565b9050600060cc60008381526020019081526020016000209050806040518060a001604052908160008201805461147290615712565b80601f016020809104026020016040519081016040528092919081815260200182805461149e90615712565b80156114eb5780601f106114c0576101008083540402835291602001916114eb565b820191906000526020600020905b8154815290600101906020018083116114ce57829003601f168201915b5050505050815260200160018201805461150490615712565b80601f016020809104026020016040519081016040528092919081815260200182805461153090615712565b801561157d5780601f106115525761010080835404028352916020019161157d565b820191906000526020600020905b81548152906001019060200180831161156057829003601f168201915b5050505050815260200160028201805461159690615712565b80601f01602080910402602001604051908101604052809291908181526020018280546115c290615712565b801561160f5780601f106115e45761010080835404028352916020019161160f565b820191906000526020600020905b8154815290600101906020018083116115f257829003601f168201915b505050505081526020016003820160009054906101000a900473ffffffffffffffffffffffffffffffffffffffff1673ffffffffffffffffffffffffffffffffffffffff1673ffffffffffffffffffffffffffffffffffffffff1681526020016003820160149054906101000a900460ff1615151515815250508486815181106116c2577f4e487b7100000000000000000000000000000000000000000000000000000000600052603260045260246000fd5b60200260200101819052506001856116da91906155cb565b9450505080806116e990615775565b915050611426565b5080935050505090565b60c960009054906101000a900473ffffffffffffffffffffffffffffffffffffffff1681565b6060600061172f60cb613d67565b90506000808267ffffffffffffffff811115611774577f4e487b7100000000000000000000000000000000000000000000000000000000600052604160045260246000fd5b6040519080825280602002602001820160405280156117ad57816020015b61179a614595565b8152602001906001900390816117925790505b50905060005b83811015611a14573373ffffffffffffffffffffffffffffffffffffffff1660cd60006001846117e391906155cb565b815260200190815260200160002060020160009054906101000a900473ffffffffffffffffffffffffffffffffffffffff1673ffffffffffffffffffffffffffffffffffffffff161415611a0157600060cd600060018461184491906155cb565b81526020019081526020016000209050806040518060e0016040529081600082015481526020016001820160009054906101000a900473ffffffffffffffffffffffffffffffffffffffff1673ffffffffffffffffffffffffffffffffffffffff1673ffffffffffffffffffffffffffffffffffffffff1681526020016002820160009054906101000a900473ffffffffffffffffffffffffffffffffffffffff1673ffffffffffffffffffffffffffffffffffffffff1673ffffffffffffffffffffffffffffffffffffffff1681526020016003820160009054906101000a900473ffffffffffffffffffffffffffffffffffffffff1673ffffffffffffffffffffffffffffffffffffffff1673ffffffffffffffffffffffffffffffffffffffff168152602001600482015481526020016005820160009054906101000a900460ff161515151581526020016005820160019054906101000a900460ff1615151515815250508385815181106119e5577f4e487b7100000000000000000000000000000000000000000000000000000000600052603260045260246000fd5b60200260200101819052506001846119fd91906155cb565b9350505b8080611a0c90615775565b9150506117b3565b5080935050505090565b60606000611a2c60ca613d67565b905060008060005b83811015611ad45785604051602001611a4d9190615029565b6040516020818303038152906040528051906020012060cc6000600184611a7491906155cb565b8152602001908152602001600020600101604051602001611a959190615040565b604051602081830303815290604052805190602001201415611ac157600183611abe91906155cb565b92505b8080611acc90615775565b915050611a34565b5060008267ffffffffffffffff811115611b17577f4e487b7100000000000000000000000000000000000000000000000000000000600052604160045260246000fd5b604051908082528060200260200182016040528015611b5057816020015b611b3d61454e565b815260200190600190039081611b355790505b50905060005b84811015611e975786604051602001611b6f9190615029565b6040516020818303038152906040528051906020012060cc6000600184611b9691906155cb565b8152602001908152602001600020600101604051602001611bb79190615040565b604051602081830303815290604052805190602001201415611e84576000600182611be291906155cb565b9050600060cc60008381526020019081526020016000209050806040518060a0016040529081600082018054611c1790615712565b80601f0160208091040260200160405190810160405280929190818152602001828054611c4390615712565b8015611c905780601f10611c6557610100808354040283529160200191611c90565b820191906000526020600020905b815481529060010190602001808311611c7357829003601f168201915b50505050508152602001600182018054611ca990615712565b80601f0160208091040260200160405190810160405280929190818152602001828054611cd590615712565b8015611d225780601f10611cf757610100808354040283529160200191611d22565b820191906000526020600020905b815481529060010190602001808311611d0557829003601f168201915b50505050508152602001600282018054611d3b90615712565b80601f0160208091040260200160405190810160405280929190818152602001828054611d6790615712565b8015611db45780601f10611d8957610100808354040283529160200191611db4565b820191906000526020600020905b815481529060010190602001808311611d9757829003601f168201915b505050505081526020016003820160009054906101000a900473ffffffffffffffffffffffffffffffffffffffff1673ffffffffffffffffffffffffffffffffffffffff1673ffffffffffffffffffffffffffffffffffffffff1681526020016003820160149054906101000a900460ff161515151581525050848681518110611e67577f4e487b7100000000000000000000000000000000000000000000000000000000600052603260045260246000fd5b6020026020010181905250600185611e7f91906155cb565b945050505b8080611e8f90615775565b915050611b56565b5080945050505050919050565b6000603360008373ffffffffffffffffffffffffffffffffffffffff1673ffffffffffffffffffffffffffffffffffffffff168152602001908152602001600020549050919050565b611ef5613b94565b73ffffffffffffffffffffffffffffffffffffffff16611f13612510565b73ffffffffffffffffffffffffffffffffffffffff1614611f69576040517f08c379a0000000000000000000000000000000000000000000000000000000008152600401611f60906152d1565b60405180910390fd5b611f736000614085565b565b60cd6020528060005260406000206000915090508060000154908060010160009054906101000a900473ffffffffffffffffffffffffffffffffffffffff16908060020160009054906101000a900473ffffffffffffffffffffffffffffffffffffffff16908060030160009054906101000a900473ffffffffffffffffffffffffffffffffffffffff16908060040154908060050160009054906101000a900460ff16908060050160019054906101000a900460ff16905087565b600061203d600161414b565b90508015612061576001600060016101000a81548160ff0219169083151502179055505b612089604051806020016040528060008152506040518060200160405280600081525061423b565b612091614298565b6120996142f1565b3360c960006101000a81548173ffffffffffffffffffffffffffffffffffffffff021916908373ffffffffffffffffffffffffffffffffffffffff16021790555080156121335760008060016101000a81548160ff0219169083151502179055507f7f26b83ff96e1f2b6a682f133852f6798a09c465da95921460cefb3847402498600160405161212a919061514c565b60405180910390a15b50565b6060600061214460ca613d67565b90506000808267ffffffffffffffff811115612189577f4e487b7100000000000000000000000000000000000000000000000000000000600052604160045260246000fd5b6040519080825280602002602001820160405280156121c257816020015b6121af61454e565b8152602001906001900390816121a75790505b50905060005b83811015612504578573ffffffffffffffffffffffffffffffffffffffff1660cc60006001846121f891906155cb565b815260200190815260200160002060030160009054906101000a900473ffffffffffffffffffffffffffffffffffffffff1673ffffffffffffffffffffffffffffffffffffffff1614156124f157600060cc600060018461225991906155cb565b81526020019081526020016000209050806040518060a001604052908160008201805461228590615712565b80601f01602080910402602001604051908101604052809291908181526020018280546122b190615712565b80156122fe5780601f106122d3576101008083540402835291602001916122fe565b820191906000526020600020905b8154815290600101906020018083116122e157829003601f168201915b5050505050815260200160018201805461231790615712565b80601f016020809104026020016040519081016040528092919081815260200182805461234390615712565b80156123905780601f1061236557610100808354040283529160200191612390565b820191906000526020600020905b81548152906001019060200180831161237357829003601f168201915b505050505081526020016002820180546123a990615712565b80601f01602080910402602001604051908101604052809291908181526020018280546123d590615712565b80156124225780601f106123f757610100808354040283529160200191612422565b820191906000526020600020905b81548152906001019060200180831161240557829003601f168201915b505050505081526020016003820160009054906101000a900473ffffffffffffffffffffffffffffffffffffffff1673ffffffffffffffffffffffffffffffffffffffff1673ffffffffffffffffffffffffffffffffffffffff1681526020016003820160149054906101000a900460ff1615151515815250508385815181106124d5577f4e487b7100000000000000000000000000000000000000000000000000000000600052603260045260246000fd5b60200260200101819052506001846124ed91906155cb565b9350505b80806124fc90615775565b9150506121c8565b50809350505050919050565b6000609760009054906101000a900473ffffffffffffffffffffffffffffffffffffffff16905090565b60606037805461254990615712565b80601f016020809104026020016040519081016040528092919081815260200182805461257590615712565b80156125c25780601f10612597576101008083540402835291602001916125c2565b820191906000526020600020905b8154815290600101906020018083116125a557829003601f168201915b5050505050905090565b6000806125d7613b94565b905060006125e5828661387f565b90508381101561262a576040517f08c379a0000000000000000000000000000000000000000000000000000000008152600401612621906153f1565b60405180910390fd5b6126378286868403613b9c565b60019250505092915050565b60008061264e613b94565b905061265b818585613e01565b600191505092915050565b60cb8060000154905081565b6060600061268060cb613d67565b90506000808267ffffffffffffffff8111156126c5577f4e487b7100000000000000000000000000000000000000000000000000000000600052604160045260246000fd5b6040519080825280602002602001820160405280156126fe57816020015b6126eb614595565b8152602001906001900390816126e35790505b50905060005b83811015612965573373ffffffffffffffffffffffffffffffffffffffff1660cd600060018461273491906155cb565b815260200190815260200160002060030160009054906101000a900473ffffffffffffffffffffffffffffffffffffffff1673ffffffffffffffffffffffffffffffffffffffff16141561295257600060cd600060018461279591906155cb565b81526020019081526020016000209050806040518060e0016040529081600082015481526020016001820160009054906101000a900473ffffffffffffffffffffffffffffffffffffffff1673ffffffffffffffffffffffffffffffffffffffff1673ffffffffffffffffffffffffffffffffffffffff1681526020016002820160009054906101000a900473ffffffffffffffffffffffffffffffffffffffff1673ffffffffffffffffffffffffffffffffffffffff1673ffffffffffffffffffffffffffffffffffffffff1681526020016003820160009054906101000a900473ffffffffffffffffffffffffffffffffffffffff1673ffffffffffffffffffffffffffffffffffffffff1673ffffffffffffffffffffffffffffffffffffffff168152602001600482015481526020016005820160009054906101000a900460ff161515151581526020016005820160019054906101000a900460ff161515151581525050838581518110612936577f4e487b7100000000000000000000000000000000000000000000000000000000600052603260045260246000fd5b602002602001018190525060018461294e91906155cb565b9350505b808061295d90615775565b915050612704565b5080935050505090565b600260655414156129b5576040517f08c379a00000000000000000000000000000000000000000000000000000000081526004016129ac906153d1565b60405180910390fd5b60026065819055503373ffffffffffffffffffffffffffffffffffffffff1660cd600083815260200190815260200160002060030160009054906101000a900473ffffffffffffffffffffffffffffffffffffffff1673ffffffffffffffffffffffffffffffffffffffff1614612a61576040517f08c379a0000000000000000000000000000000000000000000000000000000008152600401612a58906152f1565b60405180910390fd5b6001151560cd600083815260200190815260200160002060050160009054906101000a900460ff16151514612acb576040517f08c379a0000000000000000000000000000000000000000000000000000000008152600401612ac290615311565b60405180910390fd5b6000151560cd600083815260200190815260200160002060050160019054906101000a900460ff16151514612b35576040517f08c379a0000000000000000000000000000000000000000000000000000000008152600401612b2c90615251565b60405180910390fd5b600073ffffffffffffffffffffffffffffffffffffffff1660cd600083815260200190815260200160002060010160009054906101000a900473ffffffffffffffffffffffffffffffffffffffff1673ffffffffffffffffffffffffffffffffffffffff161415612c675760cd600082815260200190815260200160002060030160009054906101000a900473ffffffffffffffffffffffffffffffffffffffff1673ffffffffffffffffffffffffffffffffffffffff166108fc60cd6000848152602001908152602001600020600401549081150290604051600060405180830381858888f19350505050158015612c32573d6000803e3d6000fd5b50600160cd600083815260200190815260200160002060050160016101000a81548160ff021916908315150217905550612da9565b60cd600082815260200190815260200160002060010160009054906101000a900473ffffffffffffffffffffffffffffffffffffffff1673ffffffffffffffffffffffffffffffffffffffff166323b872dd3060cd600085815260200190815260200160002060030160009054906101000a900473ffffffffffffffffffffffffffffffffffffffff1660cd6000868152602001908152602001600020600401546040518463ffffffff1660e01b8152600401612d269392919061508d565b602060405180830381600087803b158015612d4057600080fd5b505af1158015612d54573d6000803e3d6000fd5b505050506040513d601f19601f82011682018060405250810190612d789190614820565b50600160cd600083815260200190815260200160002060050160016101000a81548160ff0219169083151502179055505b600160658190555050565b60026065541415612dfa576040517f08c379a0000000000000000000000000000000000000000000000000000000008152600401612df1906153d1565b60405180910390fd5b6002606581905550612e0c60cb61434a565b6000612e1860cb613d67565b90506040518060e001604052808281526020018573ffffffffffffffffffffffffffffffffffffffff1681526020013373ffffffffffffffffffffffffffffffffffffffff1681526020018473ffffffffffffffffffffffffffffffffffffffff1681526020018381526020016000151581526020016000151581525060cd60008381526020019081526020016000206000820151816000015560208201518160010160006101000a81548173ffffffffffffffffffffffffffffffffffffffff021916908373ffffffffffffffffffffffffffffffffffffffff16021790555060408201518160020160006101000a81548173ffffffffffffffffffffffffffffffffffffffff021916908373ffffffffffffffffffffffffffffffffffffffff16021790555060608201518160030160006101000a81548173ffffffffffffffffffffffffffffffffffffffff021916908373ffffffffffffffffffffffffffffffffffffffff1602179055506080820151816004015560a08201518160050160006101000a81548160ff02191690831515021790555060c08201518160050160016101000a81548160ff021916908315150217905550905050506001606581905550505050565b60026065541415613028576040517f08c379a000000000000000000000000000000000000000000000000000000000815260040161301f906153d1565b60405180910390fd5b600260658190555061303a60ca61434a565b600061304660ca613d67565b905060005b8181101561311757836040516020016130649190615029565b6040516020818303038152906040528051906020012060cc600060018461308b91906155cb565b81526020019081526020016000206001016040516020016130ac9190615040565b60405160208183030381529060405280519060200120141561310457600060cc60006001846130db91906155cb565b815260200190815260200160002060030160146101000a81548160ff0219169083151502179055505b808061310f90615775565b91505061304b565b506040518060a001604052808581526020018481526020018381526020013373ffffffffffffffffffffffffffffffffffffffff1681526020016001151581525060cc600083815260200190815260200160002060008201518160000190805190602001906131879291906144c8565b5060208201518160010190805190602001906131a49291906144c8565b5060408201518160020190805190602001906131c19291906144c8565b5060608201518160030160006101000a81548173ffffffffffffffffffffffffffffffffffffffff021916908373ffffffffffffffffffffffffffffffffffffffff16021790555060808201518160030160146101000a81548160ff0219169083151502179055509050508160405161323a9190615029565b6040518091039020836040516132509190615029565b6040518091039020856040516132669190615029565b60405180910390207f2e3249f822bd56e4e9ae7d39402def6df4618c14f212fbe4c35e0c94eddef9fe3360016040516132a09291906150c4565b60405180910390a4506001606581905550505050565b606060006132c460ca613d67565b90506000808267ffffffffffffffff811115613309577f4e487b7100000000000000000000000000000000000000000000000000000000600052604160045260246000fd5b60405190808252806020026020018201604052801561334257816020015b61332f61454e565b8152602001906001900390816133275790505b50905060005b8381101561373a573373ffffffffffffffffffffffffffffffffffffffff1660cc600060018461337891906155cb565b815260200190815260200160002060030160009054906101000a900473ffffffffffffffffffffffffffffffffffffffff1673ffffffffffffffffffffffffffffffffffffffff1614156137275760005b848110156137255760cc60006001846133e291906155cb565b81526020019081526020016000206001016040516020016134039190615040565b6040516020818303038152906040528051906020012060cc600060018461342a91906155cb565b815260200190815260200160002060010160405160200161344b9190615040565b60405160208183030381529060405280519060200120141561371257600060cc600060018461347a91906155cb565b81526020019081526020016000209050806040518060a00160405290816000820180546134a690615712565b80601f01602080910402602001604051908101604052809291908181526020018280546134d290615712565b801561351f5780601f106134f45761010080835404028352916020019161351f565b820191906000526020600020905b81548152906001019060200180831161350257829003601f168201915b5050505050815260200160018201805461353890615712565b80601f016020809104026020016040519081016040528092919081815260200182805461356490615712565b80156135b15780601f10613586576101008083540402835291602001916135b1565b820191906000526020600020905b81548152906001019060200180831161359457829003601f168201915b505050505081526020016002820180546135ca90615712565b80601f01602080910402602001604051908101604052809291908181526020018280546135f690615712565b80156136435780601f1061361857610100808354040283529160200191613643565b820191906000526020600020905b81548152906001019060200180831161362657829003601f168201915b505050505081526020016003820160009054906101000a900473ffffffffffffffffffffffffffffffffffffffff1673ffffffffffffffffffffffffffffffffffffffff1673ffffffffffffffffffffffffffffffffffffffff1681526020016003820160149054906101000a900460ff1615151515815250508486815181106136f6577f4e487b7100000000000000000000000000000000000000000000000000000000600052603260045260246000fd5b602002602001018190525060018561370e91906155cb565b9450505b808061371d90615775565b9150506133c9565b505b808061373290615775565b915050613348565b5080935050505090565b60008061375160ca613d67565b9050600080600090505b8281101561387457846040516020016137749190615029565b6040516020818303038152906040528051906020012060cc600060018461379b91906155cb565b81526020019081526020016000206001016040516020016137bc9190615040565b6040516020818303038152906040528051906020012014801561381257506001151560cc60006001846137ef91906155cb565b815260200190815260200160002060030160149054906101000a900460ff161515145b156138615760cc600060018361382891906155cb565b815260200190815260200160002060030160009054906101000a900473ffffffffffffffffffffffffffffffffffffffff169150613874565b808061386c90615775565b91505061375b565b508092505050919050565b6000603460008473ffffffffffffffffffffffffffffffffffffffff1673ffffffffffffffffffffffffffffffffffffffff16815260200190815260200160002060008373ffffffffffffffffffffffffffffffffffffffff1673ffffffffffffffffffffffffffffffffffffffff16815260200190815260200160002054905092915050565b6002606554141561394c576040517f08c379a0000000000000000000000000000000000000000000000000000000008152600401613943906153d1565b60405180910390fd5b60026065819055503373ffffffffffffffffffffffffffffffffffffffff1660cd600083815260200190815260200160002060020160009054906101000a900473ffffffffffffffffffffffffffffffffffffffff1673ffffffffffffffffffffffffffffffffffffffff16146139f8576040517f08c379a00000000000000000000000000000000000000000000000000000000081526004016139ef90615331565b60405180910390fd5b6000151560cd600083815260200190815260200160002060050160009054906101000a900460ff16151514613a62576040517f08c379a0000000000000000000000000000000000000000000000000000000008152600401613a59906153b1565b60405180910390fd5b600160cd600083815260200190815260200160002060050160006101000a81548160ff021916908315150217905550600160658190555050565b613aa4613b94565b73ffffffffffffffffffffffffffffffffffffffff16613ac2612510565b73ffffffffffffffffffffffffffffffffffffffff1614613b18576040517f08c379a0000000000000000000000000000000000000000000000000000000008152600401613b0f906152d1565b60405180910390fd5b600073ffffffffffffffffffffffffffffffffffffffff168173ffffffffffffffffffffffffffffffffffffffff161415613b88576040517f08c379a0000000000000000000000000000000000000000000000000000000008152600401613b7f90615211565b60405180910390fd5b613b9181614085565b50565b600033905090565b600073ffffffffffffffffffffffffffffffffffffffff168373ffffffffffffffffffffffffffffffffffffffff161415613c0c576040517f08c379a0000000000000000000000000000000000000000000000000000000008152600401613c0390615371565b60405180910390fd5b600073ffffffffffffffffffffffffffffffffffffffff168273ffffffffffffffffffffffffffffffffffffffff161415613c7c576040517f08c379a0000000000000000000000000000000000000000000000000000000008152600401613c7390615231565b60405180910390fd5b80603460008573ffffffffffffffffffffffffffffffffffffffff1673ffffffffffffffffffffffffffffffffffffffff16815260200190815260200160002060008473ffffffffffffffffffffffffffffffffffffffff1673ffffffffffffffffffffffffffffffffffffffff168152602001908152602001600020819055508173ffffffffffffffffffffffffffffffffffffffff168373ffffffffffffffffffffffffffffffffffffffff167f8c5be1e5ebec7d5bd14f71427d1e84f3dd0314c0f7b2291e5b200ac8c7c3b92583604051613d5a9190615411565b60405180910390a3505050565b600081600001549050919050565b6000613d81848461387f565b90507fffffffffffffffffffffffffffffffffffffffffffffffffffffffffffffffff8114613dfb5781811015613ded576040517f08c379a0000000000000000000000000000000000000000000000000000000008152600401613de490615271565b60405180910390fd5b613dfa8484848403613b9c565b5b50505050565b600073ffffffffffffffffffffffffffffffffffffffff168373ffffffffffffffffffffffffffffffffffffffff161415613e71576040517f08c379a0000000000000000000000000000000000000000000000000000000008152600401613e6890615351565b60405180910390fd5b600073ffffffffffffffffffffffffffffffffffffffff168273ffffffffffffffffffffffffffffffffffffffff161415613ee1576040517f08c379a0000000000000000000000000000000000000000000000000000000008152600401613ed8906151f1565b60405180910390fd5b613eec838383614360565b6000603360008573ffffffffffffffffffffffffffffffffffffffff1673ffffffffffffffffffffffffffffffffffffffff16815260200190815260200160002054905081811015613f73576040517f08c379a0000000000000000000000000000000000000000000000000000000008152600401613f6a90615291565b60405180910390fd5b818103603360008673ffffffffffffffffffffffffffffffffffffffff1673ffffffffffffffffffffffffffffffffffffffff1681526020019081526020016000208190555081603360008573ffffffffffffffffffffffffffffffffffffffff1673ffffffffffffffffffffffffffffffffffffffff168152602001908152602001600020600082825461400891906155cb565b925050819055508273ffffffffffffffffffffffffffffffffffffffff168473ffffffffffffffffffffffffffffffffffffffff167fddf252ad1be2c89b69c2b068fc378daa952ba7f163c4a11628f55a4df523b3ef8460405161406c9190615411565b60405180910390a361407f848484614365565b50505050565b6000609760009054906101000a900473ffffffffffffffffffffffffffffffffffffffff16905081609760006101000a81548173ffffffffffffffffffffffffffffffffffffffff021916908373ffffffffffffffffffffffffffffffffffffffff1602179055508173ffffffffffffffffffffffffffffffffffffffff168173ffffffffffffffffffffffffffffffffffffffff167f8be0079c531659141344cd1fd0a4f28419497f9722a3daafe3b4186f6b6457e060405160405180910390a35050565b60008060019054906101000a900460ff16156141c25760018260ff1614801561417a57506141783061436a565b155b6141b9576040517f08c379a00000000000000000000000000000000000000000000000000000000081526004016141b0906152b1565b60405180910390fd5b60009050614236565b8160ff1660008054906101000a900460ff1660ff1610614217576040517f08c379a000000000000000000000000000000000000000000000000000000000815260040161420e906152b1565b60405180910390fd5b816000806101000a81548160ff021916908360ff160217905550600190505b919050565b600060019054906101000a900460ff1661428a576040517f08c379a000000000000000000000000000000000000000000000000000000000815260040161428190615391565b60405180910390fd5b614294828261438d565b5050565b600060019054906101000a900460ff166142e7576040517f08c379a00000000000000000000000000000000000000000000000000000000081526004016142de90615391565b60405180910390fd5b6142ef61440e565b565b600060019054906101000a900460ff16614340576040517f08c379a000000000000000000000000000000000000000000000000000000000815260040161433790615391565b60405180910390fd5b614348614467565b565b6001816000016000828254019250508190555050565b505050565b505050565b6000808273ffffffffffffffffffffffffffffffffffffffff163b119050919050565b600060019054906101000a900460ff166143dc576040517f08c379a00000000000000000000000000000000000000000000000000000000081526004016143d390615391565b60405180910390fd5b81603690805190602001906143f29291906144c8565b5080603790805190602001906144099291906144c8565b505050565b600060019054906101000a900460ff1661445d576040517f08c379a000000000000000000000000000000000000000000000000000000000815260040161445490615391565b60405180910390fd5b6001606581905550565b600060019054906101000a900460ff166144b6576040517f08c379a00000000000000000000000000000000000000000000000000000000081526004016144ad90615391565b60405180910390fd5b6144c66144c1613b94565b614085565b565b8280546144d490615712565b90600052602060002090601f0160209004810192826144f6576000855561453d565b82601f1061450f57805160ff191683800117855561453d565b8280016001018555821561453d579182015b8281111561453c578251825591602001919060010190614521565b5b50905061454a9190614618565b5090565b6040518060a00160405280606081526020016060815260200160608152602001600073ffffffffffffffffffffffffffffffffffffffff1681526020016000151581525090565b6040518060e0016040528060008152602001600073ffffffffffffffffffffffffffffffffffffffff168152602001600073ffffffffffffffffffffffffffffffffffffffff168152602001600073ffffffffffffffffffffffffffffffffffffffff168152602001600081526020016000151581526020016000151581525090565b5b80821115614631576000816000905550600101614619565b5090565b6000614648614643846154db565b6154b6565b90508281526020810184848401111561466057600080fd5b61466b8482856156d0565b509392505050565b60008135905061468281615cdd565b92915050565b60008151905061469781615cf4565b92915050565b600082601f8301126146ae57600080fd5b81356146be848260208601614635565b91505092915050565b6000813590506146d681615d0b565b92915050565b6000602082840312156146ee57600080fd5b60006146fc84828501614673565b91505092915050565b6000806040838503121561471857600080fd5b600061472685828601614673565b925050602061473785828601614673565b9150509250929050565b60008060006060848603121561475657600080fd5b600061476486828701614673565b935050602061477586828701614673565b9250506040614786868287016146c7565b9150509250925092565b600080604083850312156147a357600080fd5b60006147b185828601614673565b925050602083013567ffffffffffffffff8111156147ce57600080fd5b6147da8582860161469d565b9150509250929050565b600080604083850312156147f757600080fd5b600061480585828601614673565b9250506020614816858286016146c7565b9150509250929050565b60006020828403121561483257600080fd5b600061484084828501614688565b91505092915050565b60006020828403121561485b57600080fd5b600082013567ffffffffffffffff81111561487557600080fd5b6148818482850161469d565b91505092915050565b60008060006060848603121561489f57600080fd5b600084013567ffffffffffffffff8111156148b957600080fd5b6148c58682870161469d565b935050602084013567ffffffffffffffff8111156148e257600080fd5b6148ee8682870161469d565b925050604084013567ffffffffffffffff81111561490b57600080fd5b6149178682870161469d565b9150509250925092565b6000806000806080858703121561493757600080fd5b600085013567ffffffffffffffff81111561495157600080fd5b61495d8782880161469d565b945050602085013567ffffffffffffffff81111561497a57600080fd5b6149868782880161469d565b935050604085013567ffffffffffffffff8111156149a357600080fd5b6149af8782880161469d565b925050606085013567ffffffffffffffff8111156149cc57600080fd5b6149d88782880161469d565b91505092959194509250565b6000602082840312156149f657600080fd5b6000614a04848285016146c7565b91505092915050565b6000614a198383614eea565b905092915050565b6000614a2d8383614f6e565b60e08301905092915050565b614a4281615688565b82525050565b614a5181615633565b82525050565b614a6081615621565b82525050565b614a6f81615621565b82525050565b6000614a8082615541565b614a8a818561557c565b935083602082028501614a9c8561550c565b8060005b85811015614ad85784840389528151614ab98582614a0d565b9450614ac483615562565b925060208a01995050600181019050614aa0565b50829750879550505050505092915050565b6000614af58261554c565b614aff818561558d565b9350614b0a8361551c565b8060005b83811015614b3b578151614b228882614a21565b9750614b2d8361556f565b925050600181019050614b0e565b5085935050505092915050565b614b5181615645565b82525050565b614b6081615645565b82525050565b614b6f8161569a565b82525050565b6000614b8082615557565b614b8a818561559e565b9350614b9a8185602086016156df565b614ba38161584b565b840191505092915050565b6000614bb982615557565b614bc381856155af565b9350614bd38185602086016156df565b614bdc8161584b565b840191505092915050565b6000614bf282615557565b614bfc81856155c0565b9350614c0c8185602086016156df565b80840191505092915050565b60008154614c2581615712565b614c2f81866155c0565b94506001821660008114614c4a5760018114614c5b57614c8e565b60ff19831686528186019350614c8e565b614c648561552c565b60005b83811015614c8657815481890152600182019150602081019050614c67565b838801955050505b50505092915050565b6000614ca46023836155af565b9150614caf8261585c565b604082019050919050565b6000614cc76026836155af565b9150614cd2826158ab565b604082019050919050565b6000614cea6022836155af565b9150614cf5826158fa565b604082019050919050565b6000614d0d6022836155af565b9150614d1882615949565b604082019050919050565b6000614d30601d836155af565b9150614d3b82615998565b602082019050919050565b6000614d536026836155af565b9150614d5e826159c1565b604082019050919050565b6000614d76602e836155af565b9150614d8182615a10565b604082019050919050565b6000614d996020836155af565b9150614da482615a5f565b602082019050919050565b6000614dbc6021836155af565b9150614dc782615a88565b604082019050919050565b6000614ddf6024836155af565b9150614dea82615ad7565b604082019050919050565b6000614e026013836155af565b9150614e0d82615b26565b602082019050919050565b6000614e256025836155af565b9150614e3082615b4f565b604082019050919050565b6000614e486024836155af565b9150614e5382615b9e565b604082019050919050565b6000614e6b602b836155af565b9150614e7682615bed565b604082019050919050565b6000614e8e601f836155af565b9150614e9982615c3c565b602082019050919050565b6000614eb1601f836155af565b9150614ebc82615c65565b602082019050919050565b6000614ed46025836155af565b9150614edf82615c8e565b604082019050919050565b600060a0830160008301518482036000860152614f078282614b75565b91505060208301518482036020860152614f218282614b75565b91505060408301518482036040860152614f3b8282614b75565b9150506060830151614f506060860182614a57565b506080830151614f636080860182614b48565b508091505092915050565b60e082016000820151614f846000850182614ffc565b506020820151614f976020850182614a57565b506040820151614faa6040850182614a57565b506060820151614fbd6060850182614a57565b506080820151614fd06080850182614ffc565b5060a0820151614fe360a0850182614b48565b5060c0820151614ff660c0850182614b48565b50505050565b61500581615671565b82525050565b61501481615671565b82525050565b6150238161567b565b82525050565b60006150358284614be7565b915081905092915050565b600061504c8284614c18565b915081905092915050565b600060208201905061506c6000830184614a66565b92915050565b60006020820190506150876000830184614a48565b92915050565b60006060820190506150a26000830186614a39565b6150af6020830185614a39565b6150bc604083018461500b565b949350505050565b60006040820190506150d96000830185614a66565b6150e66020830184614b57565b9392505050565b600060208201905081810360008301526151078184614a75565b905092915050565b600060208201905081810360008301526151298184614aea565b905092915050565b60006020820190506151466000830184614b57565b92915050565b60006020820190506151616000830184614b66565b92915050565b600060208201905081810360008301526151818184614bae565b905092915050565b600060a08201905081810360008301526151a38188614bae565b905081810360208301526151b78187614bae565b905081810360408301526151cb8186614bae565b90506151da6060830185614a66565b6151e76080830184614b57565b9695505050505050565b6000602082019050818103600083015261520a81614c97565b9050919050565b6000602082019050818103600083015261522a81614cba565b9050919050565b6000602082019050818103600083015261524a81614cdd565b9050919050565b6000602082019050818103600083015261526a81614d00565b9050919050565b6000602082019050818103600083015261528a81614d23565b9050919050565b600060208201905081810360008301526152aa81614d46565b9050919050565b600060208201905081810360008301526152ca81614d69565b9050919050565b600060208201905081810360008301526152ea81614d8c565b9050919050565b6000602082019050818103600083015261530a81614daf565b9050919050565b6000602082019050818103600083015261532a81614dd2565b9050919050565b6000602082019050818103600083015261534a81614df5565b9050919050565b6000602082019050818103600083015261536a81614e18565b9050919050565b6000602082019050818103600083015261538a81614e3b565b9050919050565b600060208201905081810360008301526153aa81614e5e565b9050919050565b600060208201905081810360008301526153ca81614e81565b9050919050565b600060208201905081810360008301526153ea81614ea4565b9050919050565b6000602082019050818103600083015261540a81614ec7565b9050919050565b6000602082019050615426600083018461500b565b92915050565b600060e082019050615441600083018a61500b565b61544e6020830189614a66565b61545b6040830188614a66565b6154686060830187614a66565b615475608083018661500b565b61548260a0830185614b57565b61548f60c0830184614b57565b98975050505050505050565b60006020820190506154b0600083018461501a565b92915050565b60006154c06154d1565b90506154cc8282615744565b919050565b6000604051905090565b600067ffffffffffffffff8211156154f6576154f561581c565b5b6154ff8261584b565b9050602081019050919050565b6000819050602082019050919050565b6000819050602082019050919050565b60008190508160005260206000209050919050565b600081519050919050565b600081519050919050565b600081519050919050565b6000602082019050919050565b6000602082019050919050565b600082825260208201905092915050565b600082825260208201905092915050565b600082825260208201905092915050565b600082825260208201905092915050565b600081905092915050565b60006155d682615671565b91506155e183615671565b9250827fffffffffffffffffffffffffffffffffffffffffffffffffffffffffffffffff03821115615616576156156157be565b5b828201905092915050565b600061562c82615651565b9050919050565b600061563e82615651565b9050919050565b60008115159050919050565b600073ffffffffffffffffffffffffffffffffffffffff82169050919050565b6000819050919050565b600060ff82169050919050565b6000615693826156ac565b9050919050565b60006156a58261567b565b9050919050565b60006156b7826156be565b9050919050565b60006156c982615651565b9050919050565b82818337600083830152505050565b60005b838110156156fd5780820151818401526020810190506156e2565b8381111561570c576000848401525b50505050565b6000600282049050600182168061572a57607f821691505b6020821081141561573e5761573d6157ed565b5b50919050565b61574d8261584b565b810181811067ffffffffffffffff8211171561576c5761576b61581c565b5b80604052505050565b600061578082615671565b91507fffffffffffffffffffffffffffffffffffffffffffffffffffffffffffffffff8214156157b3576157b26157be565b5b600182019050919050565b7f4e487b7100000000000000000000000000000000000000000000000000000000600052601160045260246000fd5b7f4e487b7100000000000000000000000000000000000000000000000000000000600052602260045260246000fd5b7f4e487b7100000000000000000000000000000000000000000000000000000000600052604160045260246000fd5b6000601f19601f8301169050919050565b7f45524332303a207472616e7366657220746f20746865207a65726f206164647260008201527f6573730000000000000000000000000000000000000000000000000000000000602082015250565b7f4f776e61626c653a206e6577206f776e657220697320746865207a65726f206160008201527f6464726573730000000000000000000000000000000000000000000000000000602082015250565b7f45524332303a20617070726f766520746f20746865207a65726f20616464726560008201527f7373000000000000000000000000000000000000000000000000000000000000602082015250565b7f5468697320657363726f77206c6966656379636c6520697320636f6d706c657460008201527f6564000000000000000000000000000000000000000000000000000000000000602082015250565b7f45524332303a20696e73756666696369656e7420616c6c6f77616e6365000000600082015250565b7f45524332303a207472616e7366657220616d6f756e742065786365656473206260008201527f616c616e63650000000000000000000000000000000000000000000000000000602082015250565b7f496e697469616c697a61626c653a20636f6e747261637420697320616c72656160008201527f647920696e697469616c697a6564000000000000000000000000000000000000602082015250565b7f4f776e61626c653a2063616c6c6572206973206e6f7420746865206f776e6572600082015250565b7f5468697320657363726f7720616d6f756e74206973206e6f7420666f7220796f60008201527f7500000000000000000000000000000000000000000000000000000000000000602082015250565b7f5468697320657363726f77206973207374696c6c206c6f636b6564206279207060008201527f6179657200000000000000000000000000000000000000000000000000000000602082015250565b7f556e617574686f72697a65642061636365737300000000000000000000000000600082015250565b7f45524332303a207472616e736665722066726f6d20746865207a65726f20616460008201527f6472657373000000000000000000000000000000000000000000000000000000602082015250565b7f45524332303a20617070726f76652066726f6d20746865207a65726f2061646460008201527f7265737300000000000000000000000000000000000000000000000000000000602082015250565b7f496e697469616c697a61626c653a20636f6e7472616374206973206e6f74206960008201527f6e697469616c697a696e67000000000000000000000000000000000000000000602082015250565b7f5468697320657363726f7720697320616c72656164792072656c656173656400600082015250565b7f5265656e7472616e637947756172643a207265656e7472616e742063616c6c00600082015250565b7f45524332303a2064656372656173656420616c6c6f77616e63652062656c6f7760008201527f207a65726f000000000000000000000000000000000000000000000000000000602082015250565b615ce681615621565b8114615cf157600080fd5b50565b615cfd81615645565b8114615d0857600080fd5b50565b615d1481615671565b8114615d1f57600080fd5b5056fea26469706673582212204eb9d74dee8b8cf2f6d645d13873e8f812f0dc81a907e49ecd5dcdcd3b523f9864736f6c63430008020033",
  "linkReferences": {},
  "deployedLinkReferences": {}
}